:060000000A128A11122809
:10000800FE00030EF6000408F7000A08F800831241
:1000180003137F08F9000A128A111D280A128A118F
:100028001528FA01FB01FC01FD0183010A128A115E
:10003800032A8C1E46288C1249301A06031D2E28C6
:1000480008108810081188110812881208138813DC
:10005800FA01FB0142301A06031D3A2808108810DD
:10006800081188110130FA000030FB0041301A06EF
:10007800031D462808128812081388130230FA0054
:100088000030FB000B1C9F290608F3007308FD00D5
:100098000B10061877287A087B04031958280230B1
:1000A8007A067B04031D7728081488100811881124
:1000B800081288120813881301300A128A11DC21E9
:1000C8000A128A117F30F500D430F4003130F30081
:1000D800F30B6C28F40B6C28F50B6C28732883122F
:1000E80003130810F4288618A1287A087B0403193A
:1000F800822802307A067B04031DA1288814081080
:1001080008118811081288120813881301300A127E
:100118008A11DC210A128A117F30F500D430F400EC
:100128003130F300F30B9628F40B9628F50B96283C
:100138009D28831203138810F4280619CB287A08FF
:100148007B040319AC2802307A067B04031DCB28F4
:1001580008150810881088110812881208138813C7
:1001680001300A128A11DC210A128A117F30F50047
:10017800D430F4003130F300F30BC028F40BC0285E
:10018800F50BC028C728831203130811F428861911
:10019800F6287A087B040319D62802307A067B04ED
:1001A800031DF628881508108810081108128812EF
:1001B8000813881301300A128A11DC210A128A11E5
:1001C8007F30F500D430F4003130F300F30BEA2827
:1001D800F40BEA28F50BEA28F12883120313881197
:1001E80016309A29061A1F297A087B040319002950
:1001F8007A037B04031D1F290816081088100811AC
:10020800881188120813881316300A128A11DC2103
:100218000A128A117F30F500D430F4003130F3002F
:10022800F30B1429F40B1429F50B14291B29831239
:10023800031308129929861A48297A087B04031996
:1002480029297A037B04031D482988160810881079
:100258000811881108120813881316300A128A1117
:10026800DC210A128A117F30F500D430F4003130D5
:10027800F300F30B3D29F40B3D29F50B3D294429E7
:100288008312031388129929061B71297A087B04A3
:10029800031952297A037B04031D712908170810D2
:1002A80088100811881108128812881316300A124B
:1002B8008A11DC210A128A117F30F500D430F4004B
:1002C8003130F300F30B6629F40B6629F50B662928
:1002D8006D298312031308139929861B9F297A080D
:1002E8007B0403197B297A037B04031D9F29881744
:1002F800081088100811881108128812081316307F
:100308000A128A11DC210A128A117F30F500D430D2
:10031800F4003130F300F30B8F29F40B8F29F50B20
:100328008F29962983120313881301300A128A1120
:10033800DC210A128A11790883120313FF00780856
:100348008A0077088400760E8300FE0E7E0E090070
:1003580001308A000408840A820700344C342734A8
:10036800453471347534693470346534203441341B
:100378002034613420346C34613420346D34613479
:1003880069346E3400344C34273445347134753450
:100398006934703465342034423420346134203474
:1003A8006C34613420346D34613469346E34003413
:1003B800F200720884000A128A11AC210A128A110A
:1003C800003A0319F829720884000A128A11AC212C
:1003D8000A128A110A128A113B220A128A11013062
:1003E800F1007108F207DD290D300A128A113B224B
:1003F8000A128A110A300A128A113B22080083164F
:10040800031788018901831603130810881008113F
:10041800881108128812081388138312031308100E
:1004280088100811881108128812081388130A12F4
:100438008A1121220A128A11202A83160313981678
:1004480018121815831603178711813083160313A2
:10045800990083120313981718168B170B170B168E
:10046800831603138C168B15FF3096000800F000D6
:1004780083160313981C3C2A7008831203139900EF
:0204880008006A
:04400E00D2FFFFFFDF
:00000001FF
